:1000000003308A00BC2B00000A108A100A118207F4
:1000100008340C3404340634023403340134093413
:100020000C21E9326E3B65376932EF10A1100000F8
:100030000C23721752103D10251731332029E53952
:10004000AF26693700000A287217A01EA012AE184A
:1000500066106B2861004030840083130008031988
:100060003F280130F800F701F70B3428F80B33284C
:100070004A30F700F70B3A283D28800B312808005A
:10008000470EF039F7000F300605770486000000B0
:1000900006144A28061008000608F700060E0F3955
:1000A000F8000800831606108610061183128610C9
:1000B0000F3083160605F0388600831206150000FF
:1000C000061400004C207808C70006100000061433
:1000D00000004C207808C60006100F308316060575
:1000E00086008312470EF700F030F70577084604C4
:1000F000F8007808C600C61B5828441C861044180F
:1001000086140000061100000610450EC6000F30D0
:10011000C6054608C700402045080F39C600C7007D
:10012000402008002830B3000C30B4000130B50086
:100130000630B6000610861006110F30831606052D
:1001400086000610861006110F308312C0002B2087
:100150000130B2003208033C031CB6280330C7004C
:1001600040200530C0002B20B20AAA280230C70068
:1001700040200530C0002B20B2013208033C031C94
:10018000CD2833303207840083130008B700C40140
:100190003708C5005220B20ABD288A110A12FC2B6A
:1001A000410BD328D6284030C200D728C2010130E5
:1001B0004002C20742088038C300C4014308C5009A
:1001C000522008003F08073A0319F0280B3A031998
:1001D000F528063A0319FD28023A031903290829CC
:1001E0000130C000C100D0200D29C4010130C5007C
:1001F00052200230C0002B200D290130C0000230F7
:10020000C100D0200D29C4011030C50052200D2995
:100210000130C4003F08C500522008000B08B2009E
:100220008B13831603178C170C1400000000831225
:100230000313B21B8B1703170C087F3903196229AC
:100240000313B20003170D080313B30003170F08BD
:100250000313B4003208BF00E220330803178D00F7
:100260000313340803178F0003130B08B5008B1317
:10027000831603178C170C1400000000831203135D
:10028000B51B8B1703170C0D0E0D7F39031962294F
:100290000313B20003170D080313B30003170F086D
:1002A0000313B4003208BF00E220330803178D00A7
:1002B0000313340803178F008D0A03198F0A0313E1
:1002C0000E29031703138A110A120A2C8E30F70025
:1002D0003308F8003208F900FA01F808031D7A29FA
:1002E0007908F800F9010830F702F808031D7A29A7
:1002F000F70182290310F81B8129F90DF80DF70386
:100300007A29F81308003F080319F329C7004308A6
:100310000319F329C707031894297F30C702031C68
:10032000F3290319F32998298130C7070318F32902
:100330004708F700F801F901FA014008CB00CB1794
:100340004108CA004208C9001830C700C801491C4A
:10035000C1294608FA07031CB329F90A031DB3296A
:10036000F80A0319C8174508F907031CBA29F80A3F
:100370000319C8174408C100C1174108F80703183A
:10038000C817C80DF80CF90CFA0CCB0CCA0CC90C28
:100390000310C70BA6290130F7070318F329F81B30
:1003A000D829CB0DFA0DF90DF80DF7030319F32930
:1003B000CB1FE929FA0A031DE929F90A031DE929D6
:1003C000F80A031DE929F80CF90CFA0CF70A0319CD
:1003D000F3294008C8004408C806C81FF129F817C7
:1003E000F729F813F729F701F801F901FA010800D4
:1003F0001030B600F701FA01B30CB20C031C062A48
:100400003408F7070318FA0A3508FA07FA0CF70C4C
:10041000F90CF80CB60BFC298A110A125F2CF801B2
:10042000F901F701FA013708031D192A36080319E3
:10043000332A1030B8000310B40DB50DF70DFA0DC6
:1004400037087A02031D262A36087702031C2F2A52
:100450003608F702031CFA033708FA020314F80DF2
:10046000F90DB80B1B2A8A110A126C2C0B08B30069
:100470008B13831603178C170C14000000008312D3
:100480000313B31B8B1703186D2A03170C087F394E
:100490000313B30003170D080313B40003170F0869
:1004A0000313B5003308BF00E220340803178D00A2
:1004B0000313350803178F0003130B08B6008B13C3
:1004C000831603178C170C1400000000831203130B
:1004D000B61B8B17B20B6D2A8C2A03170C0D0E0D51
:1004E0007F390313B30003170D080313B400031778
:1004F0000F080313B5003308BF00E22034080317C8
:100500008D000313350803178F008D0A03198F0A16
:1005100003100313B20B362A08008318922A4730BF
:1005200084008313F701F801F901FA01C701C8013A
:10053000C901CA0146084504440443040319D02AEA
:100540002030CB000310BF0DC00DC10DC20DC70D73
:10055000C80DC90DCA0D46084A02031DB92A45082F
:100560004902031DB92A44084802031DB92A430859
:100570004702031CCA2A4308C7024408031C440F4D
:10058000C8024508031C450FC9024608031C460F54
:10059000CA020314F70DF80DF90DFA0DCB0BA22AC0
:1005A00047088000840A48088000840A49088000BF
:1005B000840A4A08800008000408B7003608B90019
:1005C0000319FB2A3508C2003408C1003308C000F3
:1005D0003208BF00C601C5012030C4008230C3000C
:1005E00083217A08B5007908B4007808B300770849
:1005F000B200B90BE22A3508C2003408C100330842
:10060000C0003208BF003F08B63CBF00FA014008F6
:10061000C300C0170310C00CC10CC20CFA0CF90CBB
:10062000F80CF70CBF0B0A2BC31F212BF709F80995
:10063000F909FA09F70A0319F80A0319F90A03195B
:10064000FA0A7A08B5007908B4007808B300770888
:10065000B200B51F382BB703B716B209B309B409F6
:10066000B509B20A0319B30A0319B40A0319B50A82
:100670003B30BE009A30BD00CA30BC00BB010A301E
:10068000B90036080319B70A831432308400831383
:100690003508C2003408C1003308C0003208BF006A
:1006A0003E08C6003D08C5003C08C4003B08C30026
:1006B0008D227808F708031D702B360A39020319BA
:1006C000702B37080319722B0F39390203196A2B63
:1006D0000318A22BB71BA22B371B722B20309E2B8B
:1006E0002030B705B71E802BB7123608031DB7039D
:1006F0007708B7002D30BF00E2203708F700B701B8
:1007000036083902031D8E2B7708B7002E30BF0044
:10071000E2203708F7002030B70500303030B71E30
:100720009E2BB7123608031DB7037708B7002D308C
:10073000BF00E2203708F700B7013030F70777082D
:10074000BF00E22083103E08C2003D08C1003C0803
:10075000C0003B08BF00C601C501C4010A30C30088
:100760008D227A08BE007908BD007808BC007708A1
:10077000BB00B90B442B080003081F39830020106D
:10078000A101A301A201831603170908C03989003A
:1007900003131F129F120030031788008312870172
:1007A0008801890183130313A701A601A501A401F0
:1007B000A901A801AD01AC01AB01AA01AF01AE01D5
:1007C0000330B1004630B000F03083168800F630B8
:1007D000870003170908C039890003131F129F12ED
:1007E000033003178800831203131F179F17831604
:1007F0009F1783121F1492280230B2009630C00057
:100800002B20B20BFE2B103003178D0000308F0011
:1008100003130E290230B2009630C0002B20B20B19
:100820000C2C0430F8001F08C33978049F000630F0
:10083000F700F70B192C00009F149F181D2C83162E
:100840001E088312A8001E08A9002908B300280862
:10085000B2006621C930C2001F30C1000C30C00098
:100860007B30BF007A08C6007908C5007808C4004C
:100870007708C30083217A08A7007908A6007808C2
:10088000A5007708A4000030F8001F08C3397804D9
:100890009F000630F700F70B4B2C00009F149F18A9
:1008A0004F2C83161E088312AE001E08AF00B30142
:1008B0006430B2002F08B5002E08B400F82979087A
:1008C000B3007808B2007908B5007808B4003108A0
:1008D000B7003008B6000F2A7908FA007808B2008D
:1008E0007908B30066217A08AD007908AC00780871
:1008F000AB007708AA00183003178D0000308F0076
:10090000031008300313B200362289308400270810
:10091000B5002608B4002508B3002408B200013051
:10092000B600DC221E3003178D0000308F0003104C
:1009300008300313B2003622233003178D00003035
:100940008F00031007300313B20036228930840071
:100950002D08B5002C08B4002B08B3002A08B200FB
:100960000130B600DC22283003178D0000308F00E4
:10097000031404300313B20036220A30C0002B20C7
:10098000071CC72C20146430C0002B20CD2C871DE1
:10099000CD2C20106430C0002B20201CDD2CA101A8
:1009A0002108073C031CDD2C21080420B20088002C
:0E09B0006430C0002B20A10AD02C112C630053
:04400E00E12FFF3F60
:00000001FF
;PIC16F887
;CRC=111B  CREATED="02-jun.-20 17:58"
