:1000000006308A002D2E00000A108A100A1182077D
:1000100008340C3404340634023403340134093413
:100020000C21E9326E3B65376932EF10A1100000F8
:100030000C2352103D10251731332029E539AF36F6
:1000400000000A287217A01EA0122E1866106B2836
:100050006100473084008313000803193D280130F4
:10006000F800F701F70B3228F80B31284A30F70077
:10007000F70B38283B28800B2F2808004E0EF0394C
:10008000F7000F300805770488000000081448289E
:10009000081008000808F700080E0F39F8000800DB
:1000A0008316081088100811831288100F308316E9
:1000B0000805F038880083120815000008140000B5
:1000C0004A207808CE0008100000081400004A20DA
:1000D0007808CD0008100F308316080588008312B9
:1000E0004E0EF700F030F70577084D04F800780859
:1000F000CD00CD1B56284B1C88104B1888140000CF
:100100000811000008104C0ECD000F30CD054D0831
:10011000CE003E204C080F39CD00CE003E20080016
:100120002830BA000C30BB000130BC000630BD00E6
:100130000810881008110F30831608058800081071
:10014000881008110F308312C70029200130B90030
:100150003908033C031CB4280330CE003E20053090
:10016000C7002920B90AA8280230CE003E20053059
:10017000C7002920B9013908033C031CCB283A30B9
:100180003907840083130008BE00CB013E08CC0071
:100190005020B90ABB288A110A12702E480BD128A8
:1001A000D4284030C900D528C90101304702C90709
:1001B00049088038CA00CB014A08CC00502008000A
:1001C0004608073A0319EE280B3A0319F328063AB2
:1001D0000319FB28023A0319012906290130C70037
:1001E000C800CE200B29CB010130CC0050200230BA
:1001F000C70029200B290130C7000230C800CE20DB
:100200000B29CB011030CC0050200B290130CB0042
:100210004608CC00502008000B08B9008B13831649
:1002200003178C170C140000000083120313B91B72
:100230008B1703170C087F39031960290313B900C2
:1002400003170D080313BA0003170F080313BB00AD
:100250003908C600E0203A0803178D0003133B0855
:1002600003178F0003130B08BC008B1383160317AF
:100270008C170C140000000083120313BC1B8B1797
:1002800003170C0D0E0D7F39031960290313B900F4
:1002900003170D080313BA0003170F080313BB005D
:1002A0003908C600E0203A0803178D0003133B0805
:1002B00003178F008D0A03198F0A03130C290317E4
:1002C00003138A110A127E2E8E30F7003A08F800C6
:1002D0003908F900FA01F808031D78297908F800AF
:1002E000F9010830F702F808031D7829F701802981
:1002F0000310F81B7F29F90DF80DF7037829F8137F
:10030000080080308318D606DB01DC015208DA00D1
:100310005608DA0651080319712AD900F700550862
:1003200003197A2AD9020319162A031CD42956085C
:10033000DF00DF175708DE005808DD00DC0103107E
:10034000DF0CDE0CDD0CDC0CD90B9E29DA1FAB298F
:100350005B148E2A5B1059105B1654308400831393
:10036000A32A5B12DA1BBE29591CC929DF0CDE0C3B
:10037000DD0CDC0CF70A0319892AC929DF1BCC29FB
:100380000310DC0DDD0DDE0DDF0DF7030319892AE7
:10039000BE295B17362A5B135208DA00DA1FD2290E
:1003A000DF17822ADF13822A5508D900F700510887
:1003B000D9025208DF00DF175308DE005408DD00C1
:1003C000DC010310DF0CDE0CDD0CDC0CD90BE029AA
:1003D000DA1FED29DB148E2ADB105910DB1658309A
:1003E00084008313A32ADB12DA1B002A591C0B2A70
:1003F000DF0CDE0CDD0CDC0CF70A0319892A0B2A52
:10040000DF1B0E2A0310DC0DDD0DDE0DDF0DF70303
:100410000319892A002ADB17362ADB135608DA006B
:10042000DA1F142ADF17822ADF13822A5608DF0018
:10043000DF175708DE005808DD00DA1F232ADF1314
:100440005B158E2A5B11DC01591054308400831334
:10045000A32ADA1B4C2A5208DA00591C362ADF0C70
:10046000DE0CDD0CDC0CF70A0319892ADC1F472A95
:10047000DD0A031D472ADE0A031D472ADF0A031D82
:10048000472ADF0CDE0CDD0CF70A0319892A5B1BF7
:10049000CB29DB1B0D2A6B2A8030DF06DF1F542A95
:1004A0008E2A5608DA00612A5208DA00DF08031D96
:1004B000612ADE08031D612ADD08031D612AF70198
:1004C000822ADF1B6B2A0310DC0DDD0DDE0DDF0D34
:1004D000F70B612A892ADA1F6F2ADF17822ADF13B6
:1004E000822A5508F7005608DF005708DE00580832
:1004F000DD00822A5108F7005208DF005308DE00B1
:100500005408DD005F08F8005E08F9005D08FA0095
:10051000C12AF701F801F901FA01C12ADC01DD095C
:10052000DE09DF09DC09DC0A031D9C2ADD0A031D44
:100530009C2ADE0A0319DF0A5B18AA29DB18EC29BA
:100540005B19222A512A0008DD07031CAD2ADE0AA6
:10055000031DAD2ADF0A0319591484030008DE07BE
:10056000031CB52ADF0A0319591484030008801FED
:10057000803ADF07031859145B1AB129DB1AF329F3
:10058000292A080051080319322BD90055080319EC
:10059000322BD9070318D32A7F30D902031C322B00
:1005A0000319322BD72A8130D9070318322B590867
:1005B000F700F801F901FA015208DD00DD175308D0
:1005C000DC005408DB001830D900DA015B1C002B7A
:1005D0005808FA07031CF22AF90A031DF22AF80A3E
:1005E0000319DA175708F907031CF92AF80A03193F
:1005F000DA175608D300D3175308F8070318DA1789
:10060000DA0DF80CF90CFA0CDD0CDC0CDB0C031029
:10061000D90BE52A0130F7070318322BF81B172BEB
:10062000DD0DFA0DF90DF80DF7030319322BDD1F5F
:10063000282BFA0A031D282BF90A031D282BF80A78
:10064000031D282BF80CF90CFA0CF70A0319322BAE
:100650005208DA005608DA06DA1F302BF817362B64
:10066000F813362BF701F801F901FA0108005108D7
:100670000319FC2BDD0055080319FC2BDD02031CBC
:10068000462B7F30DD070318FC2B4C2B8130DD021D
:10069000031CFC2B0319FC2B5D08F700F801F90182
:1006A000FA01DC015208DB00DB175308DA005408BA
:1006B000D9001930DD005808D90203186F2B01301A
:1006C000DA0203186F2BDB0203186F2BDC0203180E
:1006D0006F2BDC0ADB0ADA0A5808D907A12B570866
:1006E000DA0203188A2B0130DB0203188A2BDC02A2
:1006F00003188A2BDC0ADB0A5708DA075808D907DF
:10070000031CA12BDA0A031DA12BDB0A031DA12B5D
:10071000DC0AA12B56088038DB020318A02B01301D
:10072000DC020318A02BDC0A56088038DB075708C8
:10073000DA07031C7E2BDB0A031D7E2BDC0A7E2BD3
:100740007A14DD0BA42BAF2B0310D90DDA0DDB0DC2
:10075000DC0D0310FA0DF90DF80DDE0D5B2B5E1CA0
:10076000B72B0310F80CF90CFA0CDE0CBA2BF703BC
:100770000319FC2BDE1BE32B0310D90DDA0DDB0D67
:10078000DC0D5808D9020318CF2B0130DA02031808
:10079000CF2BDB020318CF2BDC02031CF22B5708F4
:1007A000DA020318DA2B0130DB020318DA2BDC0241
:1007B000031CF22B56088038DB020318E32B0130B0
:1007C000DC02031CF22BFA0A031DF22BF90A031DAB
:1007D000F22BF80A031DF22BF70A0319FC2BF80C75
:1007E000F90CFA0C5208DD005608DD06DD1FFA2B65
:1007F000F817002CF813002CF701F801F901FA01A1
:10080000080083143C08D4003B08D3003A08D20007
:100810003908D1004008D8003F08D7003E08D6006C
:100820003D08D50081217A08D0007908CF007808EA
:10083000CE007708CD0083144C08D4004B08D300B9
:100840004A08D2004908D1004808D8004708D70014
:100850004608D6004508D50081215008D4004F082D
:10086000D3004E08D2004D08D1007A08D80079088C
:10087000D7007808D6007708D500C2227A08D000C1
:100880007908CF007808CE007708CD00831444089B
:10089000D4004308D3004208D2004108D1004008E8
:1008A000D8003F08D7003E08D6003D08D50081217A
:1008B0005008D4004F08D3004E08D2004D08D10094
:1008C0007A08D8007908D7007808D6007708D500CC
:1008D00037237A08D0007908CF007808CE0077084F
:1008E000CD0083107A08D4007908D3007808D200AC
:1008F0007708D1004808D8004708D7004608D60036
:100900004508D50081218A110A12C42E8E30F700C5
:100910003908F7023A08F9003B08F800F917F70818
:1009200003199D2C0310F908031D992CF8080319CD
:100930009D2CF90CF80CF70B922CBA1FA42CF8097B
:10094000F909F80A0319F90A8A110A12F32E0B0899
:10095000BA008B13831603178C170C1400000000C9
:1009600083120313BA1B8B170318DE2C03170C0812
:100970007F390313BA0003170D080313BB000317D5
:100980000F080313BC003A08C600E0203B08031719
:100990008D0003133C0803178F0003130B08BD00E1
:1009A0008B13831603178C170C140000000083129E
:1009B0000313BD1B8B17B90BDE2CFD2C03170C0D7D
:1009C0000E0D7F390313BA0003170D080313BB0084
:1009D00003170F080313BC003A08C600E0203B08C9
:1009E00003178D0003133C0803178F008D0A0319AA
:1009F0008F0A03100313B90BA72C08008318032DCB
:100A00004E3084008313F701F801F901FA01CE0199
:100A1000CF01D001D1014D084C044B044A04031905
:100A2000412D2030D2000310C60DC70DC80DC90DD1
:100A3000CE0DCF0DD00DD10D4D085102031D2A2D25
:100A40004C085002031D2A2D4B084F02031D2A2D6E
:100A50004A084E02031C3B2D4A08CE024B08031CD9
:100A60004B0FCF024C08031C4C0FD0024D08031C47
:100A70004D0FD1020314F70DF80DF90DFA0DD20B3D
:100A8000132D4E088000840A4F088000840A500805
:100A90008000840A5108800008000408BE003D0858
:100AA000C00003196C2D3C08D4003B08D3003A0861
:100AB000D2003908D100D801D7012030D6008230C9
:100AC000D500C2227A08BC007908BB007808BA00B9
:100AD0007708B900C00B532D3C08C9003B08C8007B
:100AE0003A08C7003908C6004608B63CC600FA01F5
:100AF0004708CA00C7170310C70CC80CC90CFA0C6A
:100B0000F90CF80CF70CC60B7B2DCA1F922DF709B8
:100B1000F809F909FA09F70A0319F80A0319F90A91
:100B20000319FA0A7A08BC007908BB007808BA00F1
:100B30007708B900BC1FA92DBE03BE16B909BA09B2
:100B4000BB09BC09B90A0319BA0A0319BB0A03197C
:100B5000BC0A3B30C5009A30C400CA30C300C20191
:100B60000A30C0003D080319BE0A831439308400DE
:100B700083133C08C9003B08C8003A08C70039087D
:100B8000C6004508CD004408CC004308CB0042080D
:100B9000CA00FE247808F708031DE12D3D0A400233
:100BA0000319E12D3E080319E32D0F394002031903
:100BB000DB2D0318132EBE1B132E3E1BE32D2030FE
:100BC0000F2E2030BE05BE1EF12DBE123D08031DA6
:100BD000BE037708BE002D30C600E0203E08F700B7
:100BE000BE013D084002031DFF2D7708BE002E30D8
:100BF000C600E0203E08F7002030BE05003030304F
:100C0000BE1E0F2EBE123D08031DBE037708BE0098
:100C10002D30C600E0203E08F700BE013030F70757
:100C20007708C600E02083104508C9004408C800C2
:100C30004308C7004208C600CD01CC01CB010A30F1
:100C4000CA00FE247A08C5007908C4007808C300E9
:100C50007708C200C00BB52D080003081F398300B8
:100C60002010A101A301A201831603170908C039AE
:100C7000890003131F129F1200300317880083128C
:100C800087018801890183130313A701A601A50128
:100C9000A401AB01AA01A901A801AF01AE01AD01F8
:100CA000AC01B301B201B101B001B701B601B501A8
:100CB000B401B801F0308316860003170908C03963
:100CC000890003131F129F12033003178800831239
:100CD00003131F179F1783169F1783121F14902843
:100CE0000230B9009630C7002920B90B722E10309F
:100CF00003178D0000308F0003130C290230B90058
:100D00009630C7002920B90B802E0430F8001F0848
:100D1000C33978049F000630F700F70B8D2E0000D2
:100D20009F149F18912E1E08FA0083161E08831226
:100D3000B9001E08BA0064217A08AB007908AA003D
:100D40007808A9007708A8002B08BC002A08BB0077
:100D50002908BA002808B900C001BF01BE01BD01C1
:100D6000C401C030C3007F30C2008830C100C80158
:100D7000C7012030C6008230C500CC01CB010C3049
:100D8000CA008530C900012C7A08A7007908A6009E
:100D90007808A5007708A4002708D4002608D30007
:100DA0002508D2002408D100D801D701D60182300D
:100DB000D500C222D4016030D3006A30D2008E3018
:100DC000D1007A08D8007908D7007808D6007708CB
:100DD000D50037237A08BC007908BB007808BA0030
:100DE0007708B900862C7808B8000030F8001F0892
:100DF000C33978049F000630F700F70BFD2E000082
:100E00009F149F18012F1E08FA0083161E088312D4
:100E1000B9001E08BA0064217A08B7007908B60044
:100E20007808B5007708B400D401D3012030D2008F
:100E30008130D1003708D8003608D7003508D600F1
:100E40003408D500C2227A08BC007908BB007808B3
:100E5000BA007708B9007A08D4007908D300780876
:100E6000D2007708D100D801D701D6018930D5004A
:100E700037237A08AF007908AE007808AD0077080C
:100E8000AC0083103330D400D3007330D2007D30F7
:100E9000D1002F08D8002E08D7002D08D6002C0826
:100EA000D50081217A08BC007908BB007808BA0017
:100EB0007708B9007A08D4007908D3007808D200FE
:100EC0007708D100EC30D8005130D7003830D60048
:100ED0007A30D50037237A08BC007908BB0078083F
:100EE000BA007708B90083147A08D4007908D300CF
:100EF0007808D2007708D100D801D701D6017F3019
:100F0000D50081217A08B3007908B2007808B100D1
:100F10007708B000183003178D0000308F000310E1
:100F200006300313B900A724893084002708BC00C9
:100F30002608BB002508BA002408B9000130BD000E
:100F40004D251D3003178D0000308F000310063033
:100F50000313B900A724213003178D0000308F0040
:100F6000031007300313B900A72489308400330825
:100F7000BC003208BB003108BA003008B900BD011E
:100F80004D25263003178D0000308F0003140430E8
:100F90000313B900A7241430C7002920061ED52F3B
:100FA00020143230C7002920DB2F861EDB2F2010B3
:100FB0003230C7002920201CF22FA1012108073C54
:100FC000031CF22F21080420B90086003808C7004E
:100FD0002920A10A861EF12F20103230C7002920B7
:080FE000F22FDE2F852E6300C5
:04400E00E12FFF3F60
:00000001FF
;PIC16F887
;CRC=482E  CREATED="04-jun.-20 21:27"
