:1000000005308A00892D00000A108A100A11820723
:1000100008340C3404340634023403340134093413
:100020000C21E9326E3B65376932EF10A1100000F8
:100030000C23721752103D10251731332029E53952
:10004000AF26693700000A287217A01EA0122E18CA
:1000500066106B2861004630840083130008031982
:100060003F280130F800F701F70B3428F80B33284C
:100070004A30F700F70B3A283D28800B312808005A
:100080004D0EF039F7000F300805770488000000A6
:1000900008144A28081008000808F700080E0F394D
:1000A000F8000800831608108810081183128810C1
:1000B0000F3083160805F0388800831208150000F9
:1000C000081400004C207808CD0008100000081427
:1000D00000004C207808CC0008100F30831608056B
:1000E000880083124D0EF700F030F70577084C04B6
:1000F000F8007808CC00CC1B58284A1C88104A18F5
:10010000881400000811000008104B0ECC000F30BE
:10011000CC054C08CD0040204B080F39CC00CD0059
:10012000402008002830B9000C30BA000130BB0074
:100130000630BC000810881008110F30831608051F
:1001400088000810881008110F308312C6002B2079
:100150000130B8003808033C031CB6280330CD003A
:1001600040200530C6002B20B80AAA280230CD0056
:1001700040200530C6002B20B8013808033C031C82
:10018000CD2839303807840083130008BD00CA0128
:100190003D08CB005220B80ABD288A110A12CB2D87
:1001A000470BD328D6284030C800D728C8010130D3
:1001B0004602C80748088038C900CA014908CB0070
:1001C000522008004508073A0319F0280B3A031992
:1001D000F528063A0319FD28023A031903290829CC
:1001E0000130C600C700D0200D29CA010130CB0064
:1001F00052200230C6002B200D290130C6000230EB
:10020000C700D0200D29CA011030CB0052200D2983
:100210000130CA004508CB00522008000B08B80086
:100220008B13831603178C170C1400000000831225
:100230000313B81B8B1703170C087F3903196229A6
:100240000313B80003170D080313B90003170F08B1
:100250000313BA003808C500E220390803178D00DF
:1002600003133A0803178F0003130B08BB008B130B
:10027000831603178C170C1400000000831203135D
:10028000BB1B8B1703170C0D0E0D7F390319622949
:100290000313B80003170D080313B90003170F0861
:1002A0000313BA003808C500E220390803178D008F
:1002B00003133A0803178F008D0A03198F0A0313DB
:1002C0000E29031703138A110A12D92D8E30F70055
:1002D0003908F8003808F900FA01F808031D7A29EE
:1002E0007908F800F9010830F702F808031D7A29A7
:1002F000F70182290310F81B8129F90DF80DF70386
:100300007A29F813080045080319F329CD00490894
:100310000319F329CD07031894297F30CD02031C5C
:10032000F3290319F32998298130CD070318F329FC
:100330004D08F700F801F901FA014608D100D1177C
:100340004708D0004808CF001830CD00CE014F1C20
:10035000C1294C08FA07031CB329F90A031DB32964
:10036000F80A0319CE174B08F907031CBA29F80A33
:100370000319CE174A08C700C7174708F80703181C
:10038000CE17CE0DF80CF90CFA0CD10CD00CCF0C0A
:100390000310CD0BA6290130F7070318F329F81B2A
:1003A000D829D10DFA0DF90DF80DF7030319F3292A
:1003B000D11FE929FA0A031DE929F90A031DE929D0
:1003C000F80A031DE929F80CF90CFA0CF70A0319CD
:1003D000F3294608CE004A08CE06CE1FF129F817A9
:1003E000F729F813F729F701F801F901FA010800D4
:1003F0003C080319BD2AC80040080319BD2AC802D9
:10040000031C072A7F30C8070318BD2A0D2A813034
:10041000C802031CBD2A0319BD2A4808F700F801C9
:10042000F901FA01C7013D08C600C6173E08C5001C
:100430003F08C4001930C8004308C4020318302A1A
:100440000130C5020318302AC6020318302AC70239
:100450000318302AC70AC60AC50A4308C407622A15
:100460004208C50203184B2A0130C60203184B2A62
:10047000C70203184B2AC70AC60A4208C507430821
:10048000C407031C622AC50A031D622AC60A031D8B
:10049000622AC70A622A41088038C6020318612A04
:1004A0000130C7020318612AC70A41088038C6070D
:1004B0004208C507031C3F2AC60A031D3F2AC70A74
:1004C0003F2A7A14C80B652A702A0310C40DC50D83
:1004D000C60DC70D0310FA0DF90DF80DC90D1C2A34
:1004E000491C782A0310F80CF90CFA0CC90C7B2A69
:1004F000F7030319BD2AC91BA42A0310C40DC50D97
:10050000C60DC70D4308C4020318902A0130C50266
:100510000318902AC6020318902AC702031CB32AA4
:100520004208C50203189B2A0130C60203189B2A01
:10053000C702031CB32A41088038C6020318A42A44
:100540000130C702031CB32AFA0A031DB32AF90AB1
:10055000031DB32AF80A031DB32AF70A0319BD2A9B
:10056000F80CF90CFA0C3D08C8004108C806C81F71
:10057000BB2AF817C12AF813C12AF701F801F901BB
:10058000FA01080080308318C106C601C7013D0882
:10059000C5004108C5063C080319B22BC400F7008A
:1005A00040080319BB2BC4020319572B031C152B3E
:1005B0004108CA00CA174208C9004308C800C70159
:1005C0000310CA0CC90CC80CC70CC40BDF2AC51F0A
:1005D000EC2A4614CF2B4610441046163F308400B8
:1005E0008313E42B4612C51BFF2A441C0A2BCA0C9A
:1005F000C90CC80CC70CF70A0319CA2B0A2BCA1B53
:100600000D2B0310C70DC80DC90DCA0DF703031933
:10061000CA2BFF2A4617772B46133D08C500C51F76
:10062000132BCA17C32BCA13C32B4008C400F700EF
:100630003C08C4023D08CA00CA173E08C9003F086A
:10064000C800C7010310CA0CC90CC80CC70CC40BE6
:10065000212BC51F2E2BC614CF2BC6104410C61637
:10066000433084008313E42BC612C51B412B441C6A
:100670004C2BCA0CC90CC80CC70CF70A0319CA2B9F
:100680004C2BCA1B4F2B0310C70DC80DC90DCA0D2B
:10069000F7030319CA2B412BC617772BC613410842
:1006A000C500C51F552BCA17C32BCA13C32B41083E
:1006B000CA00CA174208C9004308C800C51F642BF6
:1006C000CA134615CF2B4611C70144103F30840092
:1006D0008313E42BC51B8D2B3D08C500441C772BD1
:1006E000CA0CC90CC80CC70CF70A0319CA2BC71FC0
:1006F000882BC80A031D882BC90A031D882BCA0A28
:10070000031D882BCA0CC90CC80CF70A0319CA2B85
:10071000461B0C2BC61B4E2BAC2B8030CA06CA1FA7
:10072000952BCF2B4108C500A22B3D08C500CA0858
:10073000031DA22BC908031DA22BC808031DA22B51
:10074000F701C32BCA1BAC2B0310C70DC80DC90D75
:10075000CA0DF70BA22BCA2BC51FB02BCA17C32B70
:10076000CA13C32B4008F7004108CA004208C90059
:100770004308C800C32B3C08F7003D08CA003E08E8
:10078000C9003F08C8004A08F8004908F9004808AD
:10079000FA00022CF701F801F901FA01022CC70155
:1007A000C809C909CA09C709C70A031DDD2BC80A38
:1007B000031DDD2BC90A0319CA0A4618EB2AC618FD
:1007C0002D2B4619632B922B0008C807031CEE2B18
:1007D000C90A031DEE2BCA0A031944148403000836
:1007E000C907031CF62BCA0A031944148403000822
:1007F000801F803ACA0703184414461AF22AC61A00
:10080000342B6A2B08000B08B9008B1383160317CF
:100810008C170C140000000083120313B91B8B17F4
:1008200003183A2C03170C087F390313B900031778
:100830000D080313BA0003170F080313BB00390890
:10084000C500E2203A0803178D0003133B08031785
:100850008F0003130B08BC008B13831603178C1730
:100860000C140000000083120313BC1B8B17B80B81
:100870003A2C592C03170C0D0E0D7F390313B900B8
:1008800003170D080313BA0003170F080313BB0067
:100890003908C500E2203A0803178D0003133B080E
:1008A00003178F008D0A03198F0A03100313B80B67
:1008B000032C080083185F2C4D3084008313F7014C
:1008C000F801F901FA01CD01CE01CF01D0014C08A8
:1008D0004B044A04490403199D2C2030D100031015
:1008E000C50DC60DC70DC80DCD0DCE0DCF0DD00D4C
:1008F0004C085002031D862C4B084F02031D862C0A
:100900004A084E02031D862C49084D02031C972CF1
:100910004908CD024A08031C4A0FCE024B08031CAB
:100920004B0FCF024C08031C4C0FD0020314F70DE1
:10093000F80DF90DFA0DD10B6F2C4D088000840ACB
:100940004E088000840A4F088000840A5008800006
:1009500008000408BD003C08BF000319C82C3B0870
:10096000C8003A08C7003908C6003808C500CC01DD
:10097000CB012030CA008230C90083217A08BB0035
:100980007908BA007808B9007708B800BF0BAF2C17
:100990003B08C8003A08C7003908C6003808C50037
:1009A0004508B63CC500FA014608C900C617031041
:1009B000C60CC70CC80CFA0CF90CF80CF70CC50BDC
:1009C000D72CC91FEE2CF709F809F909FA09F70A1B
:1009D0000319F80A0319F90A0319FA0A7A08BB007D
:1009E0007908BA007808B9007708B800BB1F052D50
:1009F000BD03BD16B809B909BA09BB09B80A03197C
:100A0000B90A0319BA0A0319BB0A3B30C4009A3069
:100A1000C300CA30C200C1010A30BF003C0803193C
:100A2000BD0A83143830840083133B08C8003A0899
:100A3000C7003908C6003808C5004408CC00430880
:100A4000CB004208CA004108C9005A247808F708B8
:100A5000031D3D2D3C0A3F0203193D2D3D0803199E
:100A60003F2D0F393F020319372D03186F2DBD1B82
:100A70006F2D3D1B3F2D20306B2D2030BD05BD1E41
:100A80004D2DBD123C08031DBD037708BD002D3060
:100A9000C500E2203D08F700BD013C083F02031DF0
:100AA0005B2D7708BD002E30C500E2203D08F70021
:100AB0002030BD0500303030BD1E6B2DBD123C080E
:100AC000031DBD037708BD002D30C500E2203D08A1
:100AD000F700BD013030F7077708C500E22083102A
:100AE0004408C8004308C7004208C6004108C500C2
:100AF000CC01CB01CA010A30C9005A247A08C400CB
:100B00007908C3007808C2007708C100BF0B112D17
:100B1000080003081F3983002010A101A301A201CE
:100B2000831603170908C039890003131F129F1287
:100B3000003003178800831287018801890183131D
:100B40000313A701A601A501A401AB01AA01A901F4
:100B5000A801AF01AE01AD01AC01B301B201B10119
:100B6000B001B701B601B501B401F03083168600BB
:100B700003170908C039890003131F129F1203309D
:100B800003178800831203131F179F1783169F17DD
:100B900083121F1492280230B8009630C6002B2012
:100BA000B80BCD2D103003178D0000308F000313CC
:100BB0000E290230B8009630C6002B20B80BDB2D72
:100BC0000430F8001F08C33978049F000630F7008E
:100BD000F70BE82D00009F149F18EC2D1E08FA005B
:100BE00083161E088312B8001E08B90066217A0811
:100BF000AB007908AA007808A9007708A800C930D6
:100C0000C8001F30C7000C30C6007B30C5002B0861
:100C1000CC002A08CB002908CA002808C900832173
:100C20007A08A7007908A6007808A5007708A4002C
:100C30000030F8001F08C33978049F000630F70021
:100C4000F70B202E00009F149F18242E1E08FA0078
:100C500083161E088312B8001E08B90066217A08A0
:100C6000B7007908B6007808B5007708B400C80165
:100C7000C7012030C6008130C5003708CC003608D7
:100C8000CB003508CA003408C90083217A08BB00AC
:100C90007908BA007808B9007708B8007A08BF0068
:100CA0007908BE007808BD007708BC00C301C20106
:100CB000C1018930C000F8217A08AF007908AE0080
:100CC0007808AD007708AC0083103330BF00BE0059
:100CD0007330BD007D30BC002F08C3002E08C20059
:100CE0002D08C1002C08C000C2227A08BB00790878
:100CF000BA007808B9007708B8007A08BF00790808
:100D0000BE007808BD007708BC00EC30C30051304D
:100D1000C2003830C1007A30C000F8217A08BB0028
:100D20007908BA007808B9007708B80083147A08FF
:100D3000BF007908BE007808BD007708BC00C30179
:100D4000C201C1017F30C000C2227A08B300790815
:100D5000B2007808B1007708B000183003178D0092
:100D600000308F00031008300313B80003248930CB
:100D700084002B08BB002A08BA002908B9002808FB
:100D8000B8000130BC00A9241E3003178D000030CC
:100D90008F00031008300313B80003242330031717
:100DA0008D0000308F00031007300313B8000324B8
:100DB000893084003308BB003208BA003108B9001A
:100DC0003008B800BC01A924283003178D0000307A
:100DD0008F00031404300313B80003241430C6003A
:100DE0002B20061EF82E20146430C6002B20FE2E69
:100DF000861EFE2E20106430C6002B20201C0E2FD5
:100E0000A1012108073C031C0E2F21080420B80073
:100E100086006430C6002B20A10A012FE02D63005C
:04400E00E12FFF3F60
:00000001FF
;PIC16F887
;CRC=B2D5  CREATED="03-jun.-20 22:57"
