:1000000008308A00002800000C21E9326E3B653779
:100010006932EF10A11000000C2AAE21A01EA01220
:100020002E186610EF2100000A2A2E103D10251808
:1000300033173233A0374300423084008313000863
:10004000031930280130F800F701F70B2528F80BC9
:1000500024284A30F700F70B2B282E28800B222863
:100060000800490EF039F7000F30080577048800C2
:10007000000008143B28081008000808F700080EC4
:100080000F39F80008008316081088100811831231
:1000900088100F3083160805F03888008312081581
:1000A0000000081400003D207808C9000810000076
:1000B000081400003D207808C80008100F3083168F
:1000C000080588008312490EF700F030F70577081D
:1000D0004804F8007808C800C81B4928461C881046
:1000E000461888140000081100000810470EC800C8
:1000F0000F30C8054808C900312047080F39C8002B
:10010000C900312008002830B5000C30B60001309D
:10011000B7000630B8000810881008110F30831699
:10012000080588000810881008110F308312C200DB
:100130001C200130B4003408033C031CA728033002
:10014000C90031200530C2001C20B40A9B280230AF
:10015000C90031200530C2001C20B4013408033C22
:10016000031CBE2835303407840083130008B9000F
:10017000C6013908C7004320B40AAE288A150A12FE
:100180005828430BC428C7284030C400C828C401DD
:1001900001304202C40744088038C500C601450842
:1001A000C700432008004108073A0319E1280B3A29
:1001B0000319E628063A0319EE28023A0319F4282F
:1001C000F9280130C200C300C120FE28C601013059
:1001D000C70043200230C2001C20FE280130C200AC
:1001E0000230C300C120FE28C6011030C7004320E2
:1001F000FE280130C6004108C700432008000B0854
:10020000B4008B13831603178C170C140000000026
:1002100083120313B41B8B1703170C087F390319C0
:1002200053290313B40003170D080313B500031774
:100230000F080313B6003408C100D3203508031794
:100240008D000313360803178F0003130B08B70044
:100250008B13831603178C170C14000000008312F5
:100260000313B71B8B1703170C0D0E0D7F390319E2
:1002700053290313B40003170D080313B500031724
:100280000F080313B6003408C100D3203508031744
:100290008D000313360803178F008D0A03198F0A88
:1002A0000313FF28031703138A150A126A288E30D6
:1002B000F7003D08F8003C08F900FA01F808031DB2
:1002C0006B297908F800F9010830F702F808031DD6
:1002D0006B29F70173290310F81B7229F90DF80D2A
:1002E000F7036B29F813080041080319E429C90032
:1002F00045080319E429C907031885297F30C90275
:10030000031CE4290319E42989298130C90703184A
:10031000E4294908F700F801F901FA014208CD0083
:10032000CD174308CC004408CB001830C900CA01DF
:100330004B1CB2294808FA07031CA429F90A031D1B
:10034000A429F80A0319CA174708F907031CAB299F
:10035000F80A0319CA174608C300C3174308F80769
:100360000318CA17CA0DF80CF90CFA0CCD0CCC0CFA
:10037000CB0C0310C90B97290130F7070318E429A8
:10038000F81BC929CD0DFA0DF90DF80DF703031966
:10039000E429CD1FDA29FA0A031DDA29F90A031D17
:1003A000DA29F80A031DDA29F80CF90CFA0CF70A15
:1003B0000319E4294208CA004608CA06CA1FE229EE
:1003C000F817E829F813E829F701F801F901FA010B
:1003D00008001030B800F701FA01B50CB40C031C8A
:1003E000F7293608F7070318FA0A3708FA07FA0C4C
:1003F000F70CF90CF80CB80BED298A150A12C7286E
:10040000F801F901F701FA013908031D0A2A380831
:100410000319242A1030BA000310B60DB70DF70DDA
:10042000FA0D39087A02031D172A38087702031CCF
:10043000202A3808F702031CFA033908FA020314C9
:10044000F80DF90DBA0B0C2A8A150A12D6280B08DA
:10045000B5008B13831603178C170C1400000000D3
:1004600083120313B51B8B1703185E2A03170C089E
:100470007F390313B50003170D080313B6000317E4
:100480000F080313B7003508C100D320360803173F
:100490008D000313370803178F0003130B08B800F0
:1004A0008B13831603178C170C14000000008312A3
:1004B0000313B81B8B17B40B5E2A7D2A03170C0D90
:1004C0000E0D7F390313B50003170D080313B60093
:1004D00003170F080313B7003508C100D3203608EF
:1004E00003178D000313370803178F008D0A0319B4
:1004F0008F0A03100313B40B272A08008318832ADA
:10050000493084008313F701F801F901FA01C901A8
:10051000CA01CB01CC01480847044604450403192D
:10052000C12A2030CD000310C10DC20DC30DC40D72
:10053000C90DCA0DCB0DCC0D48084C02031DAA2ACB
:1005400047084B02031DAA2A46084A02031DAA2A8D
:1005500045084902031CBB2A4508C9024608031C7A
:10056000460FCA024708031C470FCB024808031C6A
:10057000480FCC020314F70DF80DF90DFA0DCD0B51
:10058000932A49088000840A4A088000840A4B089C
:100590008000840A4C08800008000408B90038086C
:1005A000BB000319EC2A3708C4003608C30035081D
:1005B000C2003408C100C801C7012030C600823023
:1005C000C50074217A08B7007908B6007808B5002C
:1005D0007708B400BB0BD32A3708C4003608C30021
:1005E0003508C2003408C1004108B63CC100FA0118
:1005F0004208C500C2170310C20CC30CC40CFA0C8D
:10060000F90CF80CF70CC10BFB2AC51F122BF709CC
:10061000F809F909FA09F70A0319F80A0319F90A96
:100620000319FA0A7A08B7007908B6007808B50005
:100630007708B400B71F292BB903B916B409B50957
:10064000B609B709B40A0319B50A0319B60A03199A
:10065000B70A3B30C0009A30BF00CA30BE00BD01AF
:100660000A30BB0038080319B90A831434308400F7
:1006700083133708C4003608C3003508C2003408A5
:10068000C1004008C8003F08C7003E08C6003D083A
:10069000C5007E227808F708031D612B380A3B024B
:1006A0000319612B39080319632B0F393B02031916
:1006B0005B2B0318932BB91B932B391B632B203017
:1006C0008F2B2030B905B91E712BB9123808031DC4
:1006D000B9037708B9002D30C100D3203908F700DD
:1006E000B90138083B02031D7F2B7708B9002E3073
:1006F000C100D3203908F7002030B9050030303070
:10070000B91E8F2BB9123808031DB9037708B90039
:100710002D30C100D3203908F700B9013030F70778
:100720007708C100D32083104008C4003F08C300ED
:100730003E08C2003D08C100C801C701C6010A3019
:10074000C5007E227A08C0007908BF007808BE0084
:100750007708BD00BB0B352B080080308318B90625
:10076000BE01BF013508BD003908BD0634080319B4
:100770009D2CBC00F70038080319A62CBC020319F5
:10078000422C031C002C3908C200C2173A08C100D1
:100790003B08C000BF010310C20CC10CC00CBF0C51
:1007A000BC0BCA2BBD1FD72B3E14BA2C3E103C10DD
:1007B0003E16373084008313CF2C3E12BD1BEA2B2C
:1007C0003C1CF52BC20CC10CC00CBF0CF70A031962
:1007D000B52CF52BC21BF82B0310BF0DC00DC10D9E
:1007E000C20DF7030319B52CEA2B3E17622C3E13FA
:1007F0003508BD00BD1FFE2BC217AE2CC213AE2C98
:100800003808BC00F7003408BC023508C200C21723
:100810003608C1003708C000BF010310C20CC10C6C
:10082000C00CBF0CBC0B0C2CBD1F192CBE14BA2C59
:10083000BE103C10BE163B3084008313CF2CBE127A
:10084000BD1B2C2C3C1C372CC20CC10CC00CBF0C8B
:10085000F70A0319B52C372CC21B3A2C0310BF0D15
:10086000C00DC10DC20DF7030319B52C2C2CBE17FA
:10087000622CBE133908BD00BD1F402CC217AE2C20
:10088000C213AE2C3908C200C2173A08C1003B0897
:10089000C000BD1F4F2CC2133E15BA2C3E11BF0124
:1008A0003C10373084008313CF2CBD1B782C3508C7
:1008B000BD003C1C622CC20CC10CC00CBF0CF70A62
:1008C0000319B52CBF1F732CC00A031D732CC10A5A
:1008D000031D732CC20A031D732CC20CC10CC00C67
:1008E000F70A0319B52C3E1BF72BBE1B392C972C8E
:1008F0008030C206C21F802CBA2C3908BD008D2C56
:100900003508BD00C208031D8D2CC108031D8D2CA8
:10091000C008031D8D2CF701AE2CC21B972C0310B1
:10092000BF0DC00DC10DC20DF70B8D2CB52CBD1F19
:100930009B2CC217AE2CC213AE2C3808F700390816
:10094000C2003A08C1003B08C000AE2C3408F700D2
:100950003508C2003608C1003708C0004208F80058
:100960004108F9004008FA00ED2CF701F801F901FF
:10097000FA01ED2CBF01C009C109C209BF09BF0AB4
:10098000031DC82CC00A031DC82CC10A0319C20AC2
:100990003E18D62BBE18182C3E194E2C7D2C000864
:1009A000C007031CD92CC10A031DD92CC20A031984
:1009B0003C1484030008C107031CE12CC20A03197C
:1009C0003C1484030008801F803AC20703183C14BB
:1009D0003E1ADD2BBE1A1F2C552C08003D08C40002
:1009E0004108C406C41FF92C03110310BD1B0314D6
:1009F0002C2D3D08C4004008C5003C08C502031961
:100A0000072DC41F2C2D0308013A83002C2D41080B
:100A1000C5003D08C5020319132DC41F2C2D030862
:100A2000013A83002C2D4208C5003E08C502031977
:100A30001F2DC41F2C2D0308013A83002C2D4308C1
:100A4000C5003F08C50203192B2DC41F2C2D030818
:0A0A5000013A83002C2D031008006A
:1010000003081F398300A101A001831603170908F3
:10101000C039890003131F129F1200300317880084
:10102000831287018801890183130313A501A40199
:10103000A301A201A701A601AB01AA01A901A80170
:10104000AD01AC01AF013330AE000330B100FF3071
:10105000B000B301B201FE3083168600F93087007C
:1010600003170908C039890003131F129F120730A4
:1010700003178800831203131F179F1783169F17E8
:1010800083121F140030F80004389200F9308316E0
:101090009200831207110C30970083169B019C016C
:1010A00001309D00831287100C309D008A11832827
:1010B0008A150230B4009630C2008A111C208A15AD
:1010C000B40B5B28043003178D0000308F008A11A9
:1010D0000313FF288A150230B4009630C2008A112B
:1010E0001C208A15B40B6D280030F8001F08C33986
:1010F00078049F000630F700F70B7C2800009F144F
:101100009F18802883161E088312A6001E08A700B9
:101110002708BD002608BC008A1157218A153330E4
:10112000C4003230C3004830C2007B30C1007A08AE
:10113000C8007908C7007808C6007708C5008A117A
:1011400074218A157A08A5007908A4007808A300FC
:101150007708A2000430F8001F08C33978049F0004
:101160000630F700F70BB22800009F149F18B6282E
:1011700083161E088312AC001E08AD00B50119309D
:10118000B4002D08B7002C08B6008A11E9298A1589
:101190007908B5007808B4003508B7003408B600FF
:1011A0002F08B9002E08B8008A11002A8A1579087C
:1011B000FA007808BC007908BD008A1157218A1509
:1011C0007A08AB007908AA007808A9007708A80077
:1011D0000C3003178D0000308F000310073003130D
:1011E000B4008A1127228A15893084002508B700A7
:1011F0002408B6002308B5002208B400B8018A11FB
:10120000CD228A152030C1008A11D3208A156F3073
:10121000C1008A11D3208A154330C1008A11D3201E
:101220008A15143003178D0000308F00031006302C
:101230000313B4008A1127228A15423084002B0838
:10124000B7002A08B6002908B5002808B400023003
:10125000B8008A11CD228A152030C1008A11D3200E
:101260008A156F30C1008A11D3208A154330C1001E
:101270008A11D3208A156430C2008A111C208A1575
:1012800083142508B7002408B6002308B5002208F7
:10129000B400BB01BA01B9017F30B8008A11AD2397
:1012A0008A157A08BF007908BE007808BD00770863
:1012B000BC002B08C3002A08C2002908C100280866
:1012C000C0008A11EE248A1503186829031D93298A
:1012D00083102508B7002408B6002308B5002208AB
:1012E000B400BB01BA01B9017F30B8008A11AD2347
:1012F0008A152B08BF002A08BE002908BD0028084F
:10130000BC007A08C3007908C2007808C1007708D9
:10131000C0008A11EE248A1503189029031D932911
:101320009B010610992A83142508B7002408B600EB
:101330002308B5002208B400BB01BA01B9017F300F
:10134000B8008A11AD238A152B08BF002A08BE00F9
:101350002908BD002808BC007A08C3007908C2002B
:101360007808C1007708C0008A11EE248A15031C92
:10137000BC299B010614992A83102508B70024086C
:10138000B6002308B5002208B400BB01BA01B901B8
:101390007F30B8008A11AD238A157A08BF0079081A
:1013A000BE007808BD007708BC002B08C3002A08DF
:1013B000C2002908C1002808C0008A11EE248A153D
:1013C000031C102A83102508B7002408B600230840
:1013D000B5002208B400BB01BA014030B90080302A
:1013E000B8008A11AD238A152B08BF002A08BE0059
:1013F0002908BD002808BC007A08C3007908C2008B
:101400007808C1007708C0008A11EE248A15031CF1
:10141000102A80309B001D08CF399D000610992AA4
:1014200083102508B7002408B6002308B500220859
:10143000B400BB01BA014030B9008030B8008A1155
:10144000AD238A157A08BF007908BE007808BD0070
:101450007708BC002B08C3002A08C2002908C10075
:101460002808C0008A11EE248A150318392A031DA2
:101470006A2A83102508B7002408B6002308B5009F
:101480002208B400BB01BA012030B9008130B80095
:101490008A11AD238A157A08BF007908BE00780842
:1014A000BD007708BC002B08C3002A08C200290829
:1014B000C1002808C0008A11EE248A150318622A88
:1014C000031D6A2ACC309B001D08CF3920389D00AF
:1014D0000610992A83102508B7002408B6002308AF
:1014E000B5002208B400BB01BA012030B900813038
:1014F000B8008A11AD238A157A08BF007908BE00AA
:101500007808BD007708BC002B08C3002A08C20079
:101510002908C1002808C0008A11EE248A15031C7E
:10152000992AFF309B001D08CF3930389D000610E6
:10153000992A0830F8001F08C33978049F00063044
:10154000F700F70BA12A00009F149F18A52A831605
:101550001E088312B2001E08B3003108BD00300817
:10156000BC008A1157218A157A08C4007908C30083
:101570007808C2007708C100CD30C800CC30C70061
:101580004C30C6007C30C5008A1174218A157A0857
:10159000B7007908B6007808B5007708B4003308BA
:1015A000BD003208BC008A1157218A157A08BF0095
:1015B0007908BE007808BD007708BC003708C30072
:1015C0003608C2003508C1003408C0008A11EE2474
:1015D0008A15031CF22AFF3095001708CF393038DE
:1015E00097003D2D3108BD003008BC008A115721FD
:1015F0008A157A08C4007908C3007808C200770801
:10160000C100CD30C800CC30C7004C30C6007C30A3
:10161000C5008A1174218A157A08B7007908B600C6
:101620007808B5007708B4003308BD003208BC0064
:101630008A1157218A153708BF003608BE003508C1
:10164000BD003408BC007A08C3007908C2007808DD
:10165000C1007708C0008A11EE248A15031C752B7F
:101660003108BD003008BC008A1157218A157A085C
:10167000C4007908C3007808C2007708C1009A3016
:10168000C8009930C7001930C6007D30C5008A11E6
:1016900074218A157A08BB007908BA007808B90065
:1016A0007708B8003308BD003208BC008A11572102
:1016B0008A157A08BF007908BE007808BD0077084F
:1016C000BC003B08C3003A08C2003908C100380812
:1016D000C0008A11EE248A15031C752BCC309500AE
:1016E0001708CF39203897003D2D3108BD0030084C
:1016F000BC008A1157218A157A08C4007908C300F2
:101700007808C2007708C1009A30C8009930C70035
:101710001930C6007D30C5008A1174218A157A08F7
:10172000B7007908B6007808B5007708B400330828
:10173000BD003208BC008A1157218A153708BF0046
:101740003608BE003508BD003408BC007A08C30066
:101750007908C2007808C1007708C0008A11EE2419
:101760008A15031CF82B3108BD003008BC008A1113
:1017700057218A157A08C4007908C3007808C20086
:101780007708C100CD30C800CC30C7004C30C6004F
:101790007D30C5008A1174218A157A08BB0079084A
:1017A000BA007808B9007708B8003308BD003208DD
:1017B000BC008A1157218A157A08BF007908BE003B
:1017C0007808BD007708BC003B08C3003A08C20097
:1017D0003908C1003808C0008A11EE248A15031C9C
:1017E000F82B993095001708CF39103897003D2D08
:1017F0003108BD003008BC008A1157218A157A08CB
:10180000C4007908C3007808C2007708C100CD3051
:10181000C800CC30C7004C30C6007D30C5008A11EE
:1018200074218A157A08B7007908B6007808B500DF
:101830007708B4003308BD003208BC008A11572174
:101840008A153708BF003608BE003508BD003408C9
:10185000BC007A08C3007908C2007808C100770884
:10186000C0008A11EE248A15031C7A2C3108BD00B1
:101870003008BC008A1157218A157A08C4007908FB
:10188000C3007808C2007708C1009A30C8009930B8
:10189000C7001930C6007E30C5008A1174218A1530
:1018A0007A08BB007908BA007808B9007708B80050
:1018B0003308BD003208BC008A1157218A157A0806
:1018C000BF007908BE007808BD007708BC003B085F
:1018D000C3003A08C2003908C1003808C0008A11A4
:1018E000EE248A15031C7A2C803095001708CF3916
:1018F00097003D2D3108BD003008BC008A115721EA
:101900008A157A08C4007908C3007808C2007708ED
:10191000C1009A30C8009930C7001930C6007E3027
:10192000C5008A1174218A157A08B7007908B600B3
:101930007808B5007708B4003308BD003208BC0051
:101940008A1157218A153708BF003608BE003508AE
:10195000BD003408BC007A08C3007908C2007808CA
:10196000C1007708C0008A11EE248A15031CFD2CE3
:101970003108BD003008BC008A1157218A157A0849
:10198000C4007908C3007808C2007708C100CD30D0
:10199000C800CC30C7004C30C6007E30C5008A116C
:1019A00074218A157A08BB007908BA007808B90052
:1019B0007708B8003308BD003208BC008A115721EF
:1019C0008A157A08BF007908BE007808BD0077083C
:1019D000BC003B08C3003A08C2003908C1003808FF
:1019E000C0008A11EE248A15031CFD2C4C30950092
:1019F0001708CF39203897003D2D3108BD00300839
:101A0000BC008A1157218A157A08C4007908C300DE
:101A10007808C2007708C100CD30C800CC30C700BC
:101A20004C30C6007E30C5008A1174218A157A08B0
:101A3000B7007908B6007808B5007708B400330815
:101A4000BD003208BC008A1157218A153708BF0033
:101A50003608BE003508BD003408BC007A08C30053
:101A60007908C2007808C1007708C0008A11EE2406
:0E1A70008A15031C3D2D95013D2D7428630041
:04400E00E12FFF3F60
:00000001FF
;PIC16F887
;CRC=0307  CREATED="02-jun.-20 00:54"
